:020000040800F2
:100000004807002089010008390700083D0600085C
:1000100035070008D5020008AB0E000800000000FC
:10002000000000000000000000000000D9080008E7
:10003000D902000800000000C1070008C509000837
:10004000A3010008A3010008A3010008A301000800
:10005000A3010008A3010008A3010008A3010008F0
:10006000A3010008A3010008A3010008A3010008E0
:10007000A3010008A3010008A3010008A3010008D0
:10008000A3010008A3010008A3010008A3010008C0
:10009000A3010008A3010008A3010008A3010008B0
:1000A000A3010008A3010008A3010008A3010008A0
:1000B000290A0008A3010008A3010008A301000801
:1000C000A3010008A3010008A3010008A301000880
:1000D000A3010008990C0008A3010008C90C00083E
:1000E000A3010008A3010008A301000800F002F822
:1000F00000F03AF80AA090E8000C82448344AAF188
:100100000107DA4501D100F02FF8AFF2090EBAE885
:100110000F0013F0010F18BFFB1A43F0010318473B
:10012000A8200000C8200000103A24BF78C878C179
:10013000FAD8520724BF30C830C144BF04680C60ED
:10014000704700000023002400250026103A28BF35
:1001500078C1FBD8520728BF30C148BF0B60704739
:100160001FB51FBD10B510BD00F06EF81146FFF7AA
:10017000F7FF01F05FF800F0A0F803B4FFF7F2FF1B
:1001800003BC00F094FE000009488047094800477E
:10019000FEE7FEE7FEE7FEE7FEE7FEE7FEE7FEE737
:1001A000FEE7FEE704480549054A064B7047000094
:1001B000C9090008ED000008480100204807002098
:1001C0004803002048030020704700000FB4044992
:1001D00010B503AA029800F009F810BC5DF814FBF2
:1001E0002C0000207047704770477047074B70B570
:1001F0000D467B4400F011F80446284600F020F834
:1002000010B14FF0FF3070BD204670BD8F0F000061
:1002100001694A1C02610878704700B58FB0CDE9CA
:1002200001310021059105497944CDE903101146BA
:10023000684600F02EF80FB000BD0000E5FFFFFF9C
:10024000007B00F080007047754600F03FF8AE4636
:1002500005006946534620F00700854618B020B5D2
:10026000FFF7A0FFBDE820404FF000064FF0000769
:100270004FF000084FF0000B21F00701AC46ACE84E
:10028000C009ACE8C009ACE8C009ACE8C0098D46BB
:1002900070472DE9F04106460024D6E90170F56863
:1002A0008046304603E04146B847641C3046A847C4
:1002B0000028F8D12046BDE8F08110B50446AFF320
:1002C00000802046BDE81040FFF757BF0048704748
:1002D000E400002000BFFEE7704770B5044600262A
:1002E00000254FF4FA7094FBF0F0C6B24FF4FA70A8
:1002F00094FBF0F100FB114085B205E04FF4FA7079
:1003000000F02AF8701EC6B2002EF7D115B12846AB
:1003100000F022F870BD0000002120F07F400D4A5F
:10032000127842434FF0E0235A6100229A61012281
:100330001A6100BF4FF0E022116901F001021AB109
:1003400001F48032002AF5D000224FF0E0231A6138
:100350009A61704726000020002100B9704720F004
:100360007F400E4A128842434FF0E0235A61002238
:100370009A6101221A6100BF4FF0E022116901F079
:1003800001021AB101F48032002AF5D000224FF0A8
:10039000E0231A619A6100BFE0E700002800002016
:1003A0004FF0E020006920F004004FF0E0210861E8
:1003B0000920074908700846007800EB4001C1EBAE
:1003C000C0104FF6FF7101EAC00002490880704773
:1003D00026000020280000202DE9F04102460025DB
:1003E0000026002000230024002791F803C00CF011
:1003F0000F0591F803C00CF0100CBCF1000F03D0F6
:1004000091F802C04CEA050591F800C0BCF1000F5C
:1004100031D0146800202BE04FF0010C0CFA00F3EF
:10042000B1F800C00CEA03069E4220D183004FF0D1
:100430000F0C0CFA03F7BC4305FA03FC4CEA040466
:1004400091F803C0BCF1280F06D14FF0010C0CFA53
:1004500000FCC2F814C00AE091F803C0BCF1480FD8
:1004600005D14FF0010C0CFA00FCC2F810C0401C82
:100470000828D1D31460B1F800C0BCF1FF0F34DDFF
:10048000546800202EE000F1080C4FF0010808FA33
:100490000CF3B1F800C00CEA03069E4221D18300A0
:1004A0004FF00F0C0CFA03F7BC4305FA03FC4CEABF
:1004B000040491F803C0BCF1280F05D100F1080C29
:1004C00008FA0CF8C2F8148091F803C0BCF1480F88
:1004D00007D100F1080C4FF0010808FA0CF8C2F837
:1004E0001080401C0828CED35460BDE8F08102463D
:1004F000002093680B400BB1012000E00020704702
:1005000002460020D3680B400BB1012000E0002020
:100510007047416170470161704700002DE9F04765
:1005200000F04CF804460E480068844202D80020CF
:10053000BDE8F0870A480068241A204601F038FC1C
:100540000746084A084B01F0DBFA054601F0A6FA17
:100550008146484600F0C0F881464846E8E700007A
:1005600030000020713D0AD7A300594008B5012191
:10057000082000F037F910208DF803004020ADF876
:10058000000003208DF8020069460748FFF724FFAA
:1005900048208DF803008020ADF80000694602482D
:1005A000FFF71AFF08BD0000000C014010B500F075
:1005B00005F80149086010BD3000002070B58021A9
:1005C0001D48FFF7A8FF0120FFF7A6FE40211A48AB
:1005D000FFF79FFF002400BF80211748FFF787FF28
:1005E0000028F9D1002516E040211348FFF793FFBA
:1005F00064000120FFF790FE40210F48FFF789FFBC
:1006000080210D48FFF773FF00B1641C0120FFF744
:1006100083FE681CC5B2182DE6DB40210648FFF7B3
:100620007AFF84F400040120FFF776FE402102489F
:10063000FFF76FFF204670BD000C014000BFFEE7D2
:1006400008B50121042000F0CDF80121084600F092
:10065000C9F84FF40060ADF8000003208DF80200E7
:1006600048208DF8030069460148FFF7B5FE08BD34
:100670000008014010B54FF400510848FFF740FF53
:1006800028B14FF400510548FFF743FF04E04FF451
:1006900000510248FFF73FFF10BD0000001001406D
:1006A00008B50121102000F09DF84FF40050ADF87E
:1006B000000003208DF8020010208DF80300694629
:1006C0000448FFF789FE4FF400510248FFF723FF6B
:1006D00008BD00000010014010B504461248007823
:1006E00005280ADA11481049097840F821400E48D7
:1006F0000078401C0C4908700EE00C480C49097841
:1007000040F821400A480078401C052190FBF1F296
:1007100001FB1200064908700521044800F0DAFBCD
:100720000248806810BD00003400002060000020F6
:100730003500002000BFFEE77047000070B50021C3
:1007400000230F22C47804B3154C246804F4E06439
:10075000C4F5E064210AC1F10403CA40447804FAF4
:1007600003F184781440214309010E4C0678A15509
:10077000047804F01F050124AC4005786D11AD002C
:1007800005F1E025C5F8004109E0047804F01F05F3
:100790000124AC40044D0678761145F8264070BD22
:1007A0000CED00E000E400E080E100E002490143DC
:1007B000024A1160704700000000FA050CED00E0ED
:1007C0007047000029B1064AD2690243044BDA613E
:1007D00004E0034AD2698243014BDA6170470000AA
:1007E0000010024029B1064A92690243044B9A6103
:1007F00004E0034A92698243014B9A61704700000A
:100800000010024030B500210022002400232D4DAD
:100810006D6805F00C0121B1042905D0082923D108
:1008200005E0294D056022E0274D05601FE0254DBC
:100830006D6805F47012234D6D6805F4803402254F
:1008400005EB92421CB9214D554305600BE01D4D4F
:100850006D6805F400351DB11C4D5543056002E07F
:10086000194D5543056002E0174D056000BF00BFFC
:10087000144D6D6805F0F0010909154D6B5C0568B4
:10088000DD4045600F4D6D6805F4E061090A104DCB
:100890006B5C4568DD4085600A4D6D6805F460510C
:1008A000C90A0B4D6B5C4568DD40C560054D6D6840
:1008B00005F44041890B074D6B5CC568B5FBF3F54A
:1008C000056130BD0010024000127A0000093D00B1
:1008D0000000002010000020704710B500F002F862
:1008E00010BD00000CB50020019000903348006856
:1008F00040F480303149086000BF3048006800F49F
:10090000003000900198401C0190009818B901989F
:10091000B0F5A06FF1D12948006800F4003010B1A3
:100920000120009001E0002000900098012843D1B0
:100930002348006840F0100021490860084600681C
:1009400020F0030008600846006840F002000860DC
:100950001A48406819494860084640684860084697
:10096000406840F4806048600846406820F47C108D
:1009700048600846406840F4E8104860084600684F
:1009800040F08070086000BF0C48006800F0007004
:100990000028F9D00948406820F003000749486062
:1009A0000846406840F00200486000BF03484068C5
:1009B00000F00C000828F9D10CBD00000010024026
:1009C000002002407047000010B51348006840F056
:1009D00001001149086008464068104908400E4966
:1009E0004860084600680E4908400B490860084600
:1009F000006820F4802008600846406820F4FE006B
:100A000048604FF41F008860FFF767FF4FF00060F9
:100A10000449086010BD0000001002400000FFF80B
:100A2000FFFFF6FE08ED00E010B50121880700F099
:100A300052F840B3144801780078401C124A1070F4
:100A40001E2918DB00201146087010491048006864
:100A500001F022FA044601F0E1FA0E4908700B4950
:100A60000D48006801F018FA044601F0D7FA0B4966
:100A7000087000F01FFAFFF751FD054908600121D9
:100A8000880700F019F810BD240000200000204164
:100A900018000020140000201C0000201500002079
:100AA00021B1028842F08002028004E002884FF601
:100AB0007F731A4002807047CA430282704721B197
:100AC000028842F00102028004E002884FF6FE73C1
:100AD0001A400280704730B50246002000230024EF
:100AE000158A05EA0103958905EA010413B10CB1E1
:100AF000012000E0002030BD1AB183890B438381BF
:100B000002E083898B438381704701894FF6F87235
:100B1000114001817047000070B5002400220023BD
:100B2000058C4FF6FE7635400584028C8388048B55
:100B30004FF68F752C40B51E2C400D882C43751E2A
:100B40002A400D892A434D882A43144DA8420BD0D0
:100B5000134DA84208D0134DA84205D0124DA8420B
:100B600002D0124DA84213D14FF6F7752A404D8995
:100B70002A434FF6FB752A408D882A434FF6FF65BE
:100B80002B404FF6FF552B408D892B43CD892B43AE
:100B900083800483CD888586028470BD002C01404B
:100BA0000034014000400140004401400048014041
:100BB0000A460021018B4FF6F77319401143018358
:100BC00070470021018041808180C1800181418185
:100BD0008181C18170470000002202881D4B98422C
:100BE0000ED01D4B98420BD0B0F1804F08D01B4B5C
:100BF000984205D01A4B984202D01A4B984204D121
:100C00004FF68F731A404B881A43174B984207D000
:100C1000164B984204D04FF6FF431A40CB881A4334
:100C200002808B8883850B8803850A4B98420BD002
:100C3000094B984208D00E4B984205D00D4B984274
:100C400002D00D4B984201D10B7A03860123838297
:100C500070470000002C01400034014000040040B7
:100C600000080040000C004000100040001400404C
:100C700000400140004401400048014000BF0549D8
:100C8000098801F080018029F9D10249091D0880F5
:100C9000704700000048004010B540F22551094857
:100CA00000F03FF868B140F22551064800F01EF808
:100CB000044800F0F1F8C4B22146024800F0F1F80F
:100CC00000BF10BD0038014010B540F22551064864
:100CD00000F027F830B1044800F0DEF8C4B2204636
:100CE00000F02CFD10BD00000048004010B50022AF
:100CF000002340F66A14A14200D100BF0A12012469
:100D00009440A3B2DC43048010BD21B1828942F437
:100D10000052828104E082894DF6FF731A4082817D
:100D2000704770B50246002400230025002040F6DD
:100D30006A16B14200D100BFC1F3421501F01F0392
:100D4000012606FA03F3012D02D19689334006E00D
:100D5000022D02D1168A334001E0968A33400C12EC
:100D6000012606FA04F41688344013B10CB10120B0
:100D700000E0002070BDF0B50346002400260025E9
:100D8000002040F66A17B94200D100BF1846C1F3EF
:100D9000421401F01F06012707FA06F5012C01D1C4
:100DA0000C3004E0022C01D1103000E014301AB1F4
:100DB00007682F43076002E00768AF430760F0BD94
:100DC0002DE9F04786B005460E460024A24600BF36
:100DD000A1460027B08900B100BF2F462C8A4CF6EF
:100DE000FF700440F08804432C82AC894EF6F31067
:100DF0000440B08831890843718908430443AC81B9
:100E0000AC8A4FF6FF400440B0890443AC8201A88D
:100E1000FFF7F8FC1F48874202D1DDF810A001E07F
:100E2000DDF80CA0A88900F4004040B10AEBCA002C
:100E300000EB0A1031684900B0FBF1F807E00AEB5B
:100E4000CA0000EB0A1031688900B0FBF1F8642099
:100E5000B8FBF0F004012009642101FB1089A88986
:100E600000F4004040B1322000EBC900B0FBF1F0CB
:100E700000F00700044308E0322000EB0910642171
:100E8000B0FBF1F000F00F0004432C8106B0BDE888
:100E9000F08700000038014001468888C0F3080050
:100EA0007047C1F308028280704700BFFEE700BFB1
:100EB0007047000010B505480178652000F07AFA07
:100EC00003480178662000F075FA10BD1400002078
:100ED000150000202DE9F04105460E4600271CE0D4
:100EE000002414E0621C55F8221055F8240001F08B
:100EF00034F90AD255F82400611C55F8211045F840
:100F00002410611C45F8210000BF601CC4B2701E93
:100F1000C01BA042E6DC781CC7B2701EB842DFDC02
:100F2000BDE8F0812DE9F05F04463349E01C11F87B
:100F30000080B8F10F0F5AD2DFE808F0080B0E114D
:100F40001C2024594A59595959594D0000F056F955
:100F50004EE000F0BFFA4BE000F048F948E02649C7
:100F6000A01D085C2549087000220321084600F0F6
:100F700063FD3DE001202249087039E0012021494C
:100F8000087035E01C49601D095C1B4A201D105C7F
:100F900041EA0027002518E0A01D2844801C1649BE
:100FA000085C4FF6FF7101EA0026A01D2844C01C12
:100FB0001149085C304486B22144891D481900F06B
:100FC00023F88346301D284485B2BD42E4DB0FE0A0
:100FD000FFF770FF0CE00849A01D11F80090E01D1C
:100FE00011F800A05146484600F094FC00E000BF14
:100FF00000BFBDE8F09F0000740000205B000020EF
:10100000590000205A0000202DE9F04704462678B8
:1010100094F80180A0784FF6FF7101EA0025E0788E
:10102000284485B2304600F0C9F80746084800EB6E
:1010300047004078404502D00020BDE8F0872A46AE
:10104000211D304600F020F881464846F5E70000B3
:10105000BC2100082DE9F04106460F4639463046CE
:1010600000F0E4F9054615B101200649087029464B
:101070006A2000F06DF90446012C01D1BDE8F08131
:101080000020FBE7230000202DE9F04105460E4635
:101090001746672D06D0682D0AD0692D0ED06A2D0F
:1010A00018D111E03946304600F04EF8044612E0FF
:1010B0003946304600F02EF804460CE039463046FA
:1010C00000F00EF8044606E039463046FFF7C2FF4E
:1010D000044600E000BF00BF2046BDE8F0810000EC
:1010E0002DE9F04106460F463946304600F09EF99C
:1010F000054615B10120064908702946692000F00F
:1011000027F90446012C01D1BDE8F0810020FBE75E
:10111000220000202DE9F04106460F4639463046B0
:1011200000F084F9054615B10120064908702946EA
:10113000682000F00DF90446012C01D1BDE8F081D2
:101140000020FBE7210000202DE9F04106460F4674
:101150003946304600F06AF905461DB901200849B4
:10116000087002E00020064908702946672000F058
:10117000EFF80446012C01D1BDE8F0810020FBE727
:101180002000002000BF054A128802F04002002A19
:10119000F9D0C2B2014B1B1D1A80704700380140C4
:1011A00030B502460020002305E012F8015B2C1840
:1011B000E0B25C1CA3B28B42F7DB30BD70B50546D4
:1011C00000F012F80646002407E0064810F8140064
:1011D000A84200D103E0601CC4B2B442F5DB00BFFA
:1011E000204670BDBC2100080620704710B50024C1
:1011F00022460321022000F01FFC10BD10B5002480
:101200000B48007840B90021204600F0E7F9C4B24D
:1012100001200749087004E00121204600F0DEF9B2
:10122000C4B222460321002000F006FC10BD0000DD
:101230005C0000204FF4A060FFF7B8FAFFF7B0F8A9
:101240004FF4E13000F000FB4FF4165000F0A8FA24
:1012500000F04AFBFFF7F4F9FFF722FA00F01AFA60
:10126000FFF784F9FFF7A2F94FF44870FFF735F85C
:10127000FFF79CF900F0D8F929A0FEF7A7FF4DE091
:1012800000F04CFB0A20FFF728F82948007848B105
:101290002748007808B9012000E0002024490870A0
:1012A000FFF7E8F92348007848B12248007808B9E8
:1012B000012000E000201F490870FFF7DBF91E48FD
:1012C000007848B11C48007808B9012000E00020EF
:1012D00019490870FFF7CEF94FF400611748FFF77E
:1012E00006F9D8B91420FEF7F8FF4FF4006113484F
:1012F000FFF7FDF850B900F09DF83220FEF7EDFF42
:10130000002000F0A3F80EA0FEF760FF00BF4FF42E
:1013100000610A48FFF7EBF80028F8D0B0E70000BA
:10132000696E697420737563636565640D0A0000F6
:10133000210000202200002023000020000801409E
:10134000534D4152545F434F4E4649470D0A0000EA
:1013500070B504460D46002615480078012800D1D6
:1013600070BD2146304600F039F90646012130466D
:1013700000F034F906460021304600F02FF9064609
:101380000121304600F02AF906462DB900213046E9
:1013900000F024F9064604E00121304600F01EF971
:1013A000064632460321072000F046FB0120D7E71E
:1013B0005800002070B505460C4600261A480078F3
:1013C000012800D170BD2946304600F007F90646D5
:1013D0000221304600F002F906460021304600F0B6
:1013E000FDF806460421304600F0F8F80646210EC6
:1013F000304600F0F3F80646C4F30741304600F0EB
:10140000EDF80646C4F30721304600F0E7F806463B
:10141000E1B2304600F0E2F80646324603210720EA
:1014200000F00AFB0120CDE75800002002461078AA
:101430007047000010B50020034908700022032106
:10144000042000F0F9FA10BD5900002070B50446E0
:1014500000250020064908702146284600F0BEF805
:10146000C5B22A460321052000F0E6FA70BD00004F
:101470005A000020F0B505460E4613462A4634466B
:1014800005B10EB90020F0BDA24202D9E018904289
:1014900008D2002103E0605C5054481C81B299429C
:1014A000F9DB07E0194603E0481E275C175481B2B8
:1014B0000029F9DC2846E6E70146002209B90020A8
:1014C0007047002200E0521C11F8013B002BFAD1BA
:1014D0001046F5E73EB500240020009001900290F0
:1014E00025A0FFF7E9FF85B22A4623A1204600F098
:1014F00061F8C4B222A0FFF7DFFF85B22A4620A11F
:10150000204600F057F8C4B222A0FFF7D5FF85B2FD
:101510002A4620A1204600F04DF8C4B21FA0FFF7D4
:10152000CBFF85B22A461DA1204600F043F8C4B285
:101530001CA0FFF7C1FF85B22A461AA1204600F081
:1015400039F8C4B219A0FFF7B7FF85B22A4617A130
:10155000204600F02FF8C4B215A0FFF7ADFF85B20A
:101560002A4613A1204600F025F8C4B222460321E2
:10157000012000F061FA3EBD7B2270223A22000079
:1015800063337775656F6476767A67736C673577E2
:1015900000000000222C2276223A2200312E302E2A
:1015A00030000000222C226D223A000032000000A0
:1015B0007D0000002DE9F04104460E461546064820
:1015C00007192A4631463846FFF754FF601984B29E
:1015D0002046BDE8F0810000B0000020024B1A1840
:1015E0001170431C98B27047B00000200B49096885
:1015F0000B4A126891420FD008490A6809498A4289
:1016000002D31739054A116004490968087803496B
:101610000968491C014A116070470000540000200D
:1016200050000020AA0000201FB501210846FFF746
:10163000C9F84FF08040FFF768FA0020ADF80A00C3
:10164000ADF8060040F2E730ADF8080040F2CF20D8
:10165000ADF8040000208DF80C0001A94FF0804087
:10166000FFF7BAFA012211469007FFF745FA1C204E
:101670008DF8000001208DF801008DF802008DF832
:1016800003006846FFF75AF801218807FFF717FAA9
:101690001FBD000000B589B001210220FFF792F8BC
:1016A00001210420FFF79EF818208DF82300402028
:1016B000ADF8200003208DF8220008A91D48FEF790
:1016C0008BFE1D48FFF721FA0020ADF81A00ADF897
:1016D000160040F2CF70ADF8180040F2CF20ADF800
:1016E000140000208DF81C0005A91348FFF774FAB8
:1016F00001A8FFF766FA6020ADF804000020ADF8FD
:101700000C000120ADF806000020ADF80A0001A988
:101710000948FFF701FA00210748FFF749FA0121BC
:101720000548FFF7BDF901210348FFF7C8F909B0E3
:1017300000BD000000080140000400401249096893
:10174000124A1268891A01291CD0104909680E4AE8
:101750001268914206D90D4909680B4A1268891A24
:1017600017290FD209490A6809498A4202D3173951
:10177000064A116005490968087004490968491C4E
:10178000024A116070470000540000205000002001
:10179000AA00002010B504462046FFF76FFA10BDDE
:1017A00010B586B0044601210820FFF71BF801217F
:1017B0008804FFF707F84FF48060ADF810000320AD
:1017C0008DF8120018208DF8130004A91C48FEF7AC
:1017D00003FE4FF40060ADF8100004208DF81300F4
:1017E00004A91748FEF7F8FD00940020ADF80400A6
:1017F000ADF80600ADF80800ADF80C000C20ADF80F
:101800000A0069460F48FFF7DBFA01210D48FFF790
:101810007CFA012240F225510A48FFF7ACFA272052
:101820008DF8140000208DF8150001208DF81600A9
:101830008DF8170005A8FEF781FF06B010BD000067
:10184000000C01400048004010B586B0044601215C
:1018500044F20400FEF7C6FF4FF40070ADF8140028
:1018600018208DF8170003208DF8160005A91C48D4
:10187000FEF7B2FD4FF48060ADF8140048208DF8FB
:10188000170005A91648FEF7A7FD01940020ADF842
:101890000800ADF80A00ADF80C00ADF810000C20FF
:1018A000ADF80E0001A90F48FFF78AFA012240F2B5
:1018B00025510C48FFF75FFA01210A48FFF725FA86
:1018C00025208DF8000000208DF801008DF8020021
:1018D00001208DF803006846FEF730FF06B010BD0A
:1018E00000080140003801400548064908600649E3
:1018F0000860002005490870FF20054908707047FE
:1019000093000020500000205400002058000020C8
:101910005B00002008B901B100BF704770B500241A
:10192000002509E0FFF762FE38490A880988491C4A
:10193000364B198036498854344800881F2803D212
:1019400000F09EF80028EDDC30480088072800DA17
:1019500070BD42E02E48005D552802D0601C84B264
:101960003BE02B49601C085CAA2802D0601C84B2B2
:1019700033E02749A01C085C10B1A01C84B22CE005
:101980002349201D085C4FF6FF7101EA002520491C
:10199000601D085CC01D284485B2262D02D9E01CBC
:1019A00084B21AE019480088001BA84200DA19E046
:1019B0006A1E91B2164A1019FFF7F2FB6119491E0F
:1019C000134A515C884202D0E01C84B205E02046F4
:1019D000FFF7A8FA601984B200BF0C480088001B0A
:1019E0000728B7DA00BF09480088001B07490880AC
:1019F00008460088002806DD0548011903480288CA
:101A00000348FFF737FD00BFA2E700004C000020AD
:101A10007400002070B504460D4604B105B970BDD0
:101A200003E02078FFF7B6FE641C281EA5F1010133
:101A30008DB2F6D100BFF2E72DE9F04105460E4622
:101A40001446002755200D490870AA204870084602
:101A50008670C570201208714C71E01D84B2601E42
:101A600081B20648FFF79CFB0746601E03490F54EE
:101A700021460248FFF7CEFFBDE8F081AA00002012
:101A80000448006804490968884201D00120704771
:101A90000020FCE7500000205400002021F000420C
:101AA000A2F16052B2F5801F01F0004328BFD2F1CD
:101AB0007F6C0BD95FEA001C43EAC20242EB507014
:101AC00018BF704728BF20F001007047B2F5801F93
:101AD000BCBF184670474FEA410C1CF5001F02D2EC
:101AE000084600F035BB70B500F075F900000089BC
:101AF000FFF7F6BF4FF00040A0F5800070470000F0
:101B00002DE9C04130B4DFF8A0C23CEA111418BF7F
:101B10003CEA131400F0EC8081EA03051CEA11147E
:101B200044EAD57418BF1CEA131500F0C780A4EB73
:101B300005044FF0004545EAC12145EAC32341EAC7
:101B4000505143EA525304F17F74994204F5003432
:101B50004FEAC0204FEAC22208BF904200F09C80AA
:101B60004FEA13650FF24016765D4FEA134506FB08
:101B700005F7C7F1807706FB07F74FEAD737A7FBD2
:101B800003687642C8F58038A7FB06CE38BFA8F1B7
:101B9000010807FB08E64FF0000EA6FB028CE6FBEF
:101BA00003CEDCF1000CCEF1004E38BFAEF1010ED9
:101BB000A6FB0C584FF000074FF00005E6FB0E8720
:101BC000A1FB08C6A0FB07CE16EB0E0645F10005EB
:101BD000E1FB076515F1E04E7EBFA4F580345FEAB6
:101BE00046066D4116F1800745F100054FEA1727BB
:101BF0004FEA066647EA0567A6F1DE46B6F1805F62
:101C00004FEA15251FD9384624F0010C05EBC471A5
:101C1000BCF1FE6F01EB0C1102D8F0BCBDE80081F5
:101C200024425CBF01F5801E9EEAC47F02D4F0BC52
:101C3000BDE80081244238D4F0BCA1F1C041BDE828
:101C4000004100F016B94FEAD22242EA43524FEA6D
:101C5000D323A7FB02864FEAD02040EA415007FB7E
:101C600003661EEA0E0F4FEAD12105FB026658BF3C
:101C7000A6EB0056B6EB00564FEA520E4EEAC37E74
:101C800018EB0E0E56EB530EBDD518EB02085E4155
:101C90007F1C55F10005B6E74FF480154FF00007A3
:101CA0004FF000064FF00008ADE7F0BC4FF0000029
:101CB00001F1C04101F00041BDE8008111EA0C1FB3
:101CC0000CEA131500D00CE013EA0C1F00F025807D
:101CD0004FF00000F0BC81EA030101F00041BDE8D3
:101CE0000081F0BCBDE8004181EA030100F0C1B809
:101CF000F0BCBDE8004170B500F06DF8097EFC3E17
:101D000000F007B881EA03014FF0000001F0004144
:101D1000704781EA030100F0ACB8F0BCBDE80041B7
:101D20004FF0000021497047FFFDFBF9F7F5F4F291
:101D3000F0EEEDEBE9E8E6E4E3E1E0DEDDDBDAD866
:101D4000D7D5D4D3D1D0CFCDCCCBCAC8C7C6C5C4C4
:101D5000C2C1C0BFBEBDBCBBBAB9B8B7B6B5B4B3DB
:101D6000B2B1B0AFAEADACABAAA9A8A8A7A6A5A4C6
:101D7000A3A3A2A1A09F9F9E9D9C9C9B9A9999988A
:101D80009797969595949393929191908F8F8E8E2D
:101D90008D8C8C8B8B8A89898888878786858584BA
:101DA00084838382828181800000FF070000F87FA6
:101DB000B0FA80F310FA03F10AD0C3F11D0303F562
:101DC00080634FEA41504FEA035202EBD121704742
:101DD0004FF0000070470EF1020E2EF0030E5EF879
:101DE000046B364205D4012A43EB030515F5001FA9
:101DF00012D8012841EB010C1CF5001F0CD80ED1A4
:101E00004FEAD17C15F5001F0CEB4C0C0CF1020CC9
:101E100008BF4CEBD37C04E04FF0080C01E04FEA24
:101E2000D37C0CEB4C0526FA05F606F00706B6F156
:101E3000040C06D20EEB860CBDE870404CF0010C91
:101E40006047DFE80CF0090B02024FF000414FF051
:101E50000000A1F5002170BD19461046012851EB84
:101E6000010418BFD4F5001484BF002001F0004124
:101E700070BD0808A0F500114FEA3101704740100D
:101E800058BFC0F14040491058BFC1F140418142A4
:101E9000EFF30080704700004FF47F0C1CEAD01273
:101EA0001EBF1CEAD11392EA0C0F93EA0C0F00F04C
:101EB000858090EA010F48BF42F4807240F4000C24
:101EC00041F400002CF07F4120F07F4000B58142BA
:101ED000A2EB03020FF2081CACEB504EC0F1000065
:101EE0009EF800E04FEA4E0E00FB0EFC38BF4900A2
:101EF0004FEA2C1C02F5FA020CFB0EF34FEACE1E41
:101F00004FEA112C4FEAC1210EEB635E42EB2242F5
:101F10000EFB0CFC4FEA1C5300FB03114FEA112C83
:101F20004FEA01310EFB0CFC4FEADC4C00FB0C11BC
:101F3000C14228BF09184CEB03335DF804EB10EBEA
:101F4000410143EBC250B2F57C0F38BF704729D531
:101F500012F0F00F1CBF00F1C04000F000407047CD
:101F6000008182838485868788898B8C8D8E8F9172
:101F70009293959697999A9C9D9FA0A2A3A5A7A896
:101F8000AAACAEB0B2B3B5B7B9BCBEC0C2C5C7C9C2
:101F9000CCCED1D4D7D9DCDFE2E6E9ECF0F3F7FA26
:101FA000FE0000004FEA400C0CF1807CBCF17E4F3B
:101FB00028BF7047B0F1C04000F0CAB890EA010FE6
:101FC0000CEAD11348BF42F48072624538BF6345C2
:101FD00007D213F47F0F16D080EA010000F0004012
:101FE000704710B500F06EF8097EFC3E00F005B8B1
:101FF00080EA010000F00040704780EA010000F034
:10200000004000F0A5B812F47F0F04BF02487047EB
:1020100080EA010000F09CB80000C07FC10DD1F142
:102020009E0206DB4FEA002343F0004323FA02F04E
:102030007047004207D54FEA4001B1F1FE4F02D28E
:102040004FF00000704710B500F03CF84992248032
:10205000002070476FEA20007047000050EA010C32
:1020600000F113801CF5000F58BFBCF5000F01D420
:102070008842704707D710F5000F58BF11F5000FC1
:1020800015D488427047894270471CF5000F04D56B
:10209000BCF5000FF7D5814270474FF0807C1CEBF8
:1020A000400F38BF1CEB410F01D28142704710B581
:1020B00000F008F8922449004FF000504FF0805192
:1020C000FFF7DDBE0EF1020E2EF0030E5EF8044B9C
:1020D000244204D44FEA4102B2F17F4F11D84FEAB3
:1020E0004003B3F17F4F0CD80ED14FEAD07CB2F150
:1020F0007F4F0CEB4C0C0CF1020C08BF4CEBD17C6D
:1021000004E04FF0080C01E04FEAD17C0CEB4C03EB
:1021100024FA03F404F00704B4F1040C06D20EEB25
:10212000840CBDE810404CF0010C6047DFE80CF077
:10213000070802024FF00040A0F5800010BD0846DD
:10214000420018BFD2F1807288BF00F0004010BD7D
:10215000FF2141EAD050C005704751EA000C00F160
:1021600013801CF5000F58BFBCF5000F01D481424D
:10217000704707D711F5000F58BF10F5000F15D4A1
:1021800081427047894270471CF5000F04D5BCF5A9
:10219000000FF7D5884270474FF0807C1CEB410F51
:1021A00038BF1CEB400F01D28842704780EA010023
:1021B00081EA000180EA0100FFF779BF650266024B
:1021C0006701680169016A01E82100080000002038
:1021D000600000002801000848220008600000207C
:1021E000E8060000440100080000000001020304AA
:1021F00001020304060708090204060800000000A3
:1022000000000000000000000000000000000000CE
:1022100000000000000000000000000000000000BE
:1022200000000000000020416F12833A6F12833AD1
:10223000000000000000000000000000000000009E
:08224000000000000000000096
:04000005080000ED02
:00000001FF
